:10000000FDC0000018C1000016C1000014C10000AE
:1000100012C1000010C100000EC100000CC10000A0
:100020000AC1000008C1000006C1000004C10000B0
:1000300002C1000000C100006BC5000092C50000B5
:10004000B9C50000E0C5000007C600002EC60000CC
:1000500055C600007CC60000A3C60000CAC600004A
:10006000EAC00000E8C00000E6C00000E4C00000F4
:10007000E2C00000E0C00000DEC00000DCC0000004
:10008000DAC00000D8C00000D6C00000D4C0000014
:10009000D2C00000D0C00000CEC00000CCC0000024
:1000A000CAC00000C8C00000C6C00000C4C0000034
:1000B000C2C00000C0C00000BEC000000C94BC085C
:1000C0000C94E5080C940E090C9437090C94600903
:1000D0000C948909B0C00000AEC00000ACC00000A4
:1000E000AAC00000A8C00000A6C00000A4C0000074
:1000F000A2C00000A0C000009EC000009CC0000084
:100100009AC0000098C0000096C0000094C0000093
:1001100092C0000090C000008EC000005BC30000D1
:1001200087C30000B3C30000DFC3000084C0000029
:1001300082C0000087C60000AEC60000D5C6000021
:10014000FCC6000023C700004AC7000071C70000BA
:1001500098C70000BFC70000E6C700006CC00000E1
:100160000C94CA1068C0000066C0000064C00000A3
:1001700062C0000060C000005EC000005CC0000003
:100180005AC0000058C0000056C0000054C0000013
:1001900052C0000050C000004EC000004CC0000023
:1001A0004AC0000048C0000046C0000044C0000033
:1001B00042C0000040C000003EC000003CC0000043
:1001C0003AC0000038C0000036C0000034C0000053
:1001D00032C0000030C000002EC000002CC0000063
:1001E0002AC0000028C0000026C0000024C0000073
:1001F00022C0000020C000001EC0000011241FBE4D
:10020000CFEFCDBFDFE2DEBF10E2A0E0B0E2E0E47E
:10021000F9E202C005900D92A830B107D9F720E2AB
:10022000A8E0B0E201C01D92A934B207E1F70E9434
:100230001E0F0C949E14E4CECF92DF92EF92FF92A9
:10024000CF93DF93EC016B01E12CF12C60E078E4BB
:1002500088EE91E0A70196010E940514CA01B90138
:100260002FEF3FEF40E050E00E94051421153105CB
:1002700029F481E08C8321E030E02DC0223031056B
:1002800028F482E08C8322E030E025C02430310560
:1002900028F483E08C8324E030E01DC02830310551
:1002A00028F484E08C8328E030E015C02034310548
:1002B00028F485E08C8320E430E00DC02F3F310529
:1002C00009F028F486E08C8320E031E004C087E068
:1002D0008C8320E034E040E050E060E078E488EE99
:1002E00091E00E940514CA01B901A70196010E947C
:1002F00005142D833E832436310518F41C821D829B
:100300001E82DF91CF91FF90EF90DF90CF90089504
:100310000F931F93CF93DF93EC0189016230B9F102
:1003200028F4662351F06130E9F06FC0633009F4BE
:1003300043C0643009F455C068C080E098E0888309
:100340009983E0E4F6E0508121E030E08FEF840F04
:10035000B90102C0660F771F8A95E2F7CB01852BA2
:10036000808353C080E498E088839983E0E4F6E0DA
:10037000508121E030E083E0840FB90102C0660FB4
:10038000771F8A95E2F7CB01852B80833EC080E002
:1003900099E088839983E0E6F6E0508121E030E03F
:1003A0008FEF840FB90102C0660F771F8A95E2F7BD
:1003B000CB01852B808329C080E499E088839983D1
:1003C000E0E6F6E0508121E030E083E0840FB901FF
:1003D00002C0660F771F8A95E2F7CB01852B8083D9
:1003E00014C080E09AE088839983E0E8F6E05081C9
:1003F00021E030E08FEF840FB90102C0660F771F54
:100400008A95E2F7CB01852B80834A83423061F0E5
:1004100018F4413031F010C0433049F0443051F00D
:100420000BC080E18B8308C080E28B8305C080E431
:100430008B8302C080E88B838881998193D7E88180
:10044000F9818181887F836081831D821E821C8265
:10045000E881F9818081807F8083B801CE01ECDE64
:10046000DF91CF911F910F910895CF93DF93EC010E
:10047000AD81BE81262F30E00E94271424E630E0B3
:1004800040E050E00E9405148A81E881F981E6FD90
:1004900017C0823061F018F4813031F01BC0833016
:1004A00049F0843051F016C020AF31AF13C022AFF5
:1004B00033AF10C024AF35AF0DC026AF37AF0AC081
:1004C000813019F0823021F005C020AF31AF02C079
:1004D00022AF33AF8D819E81E881F98186A397A3F6
:1004E0008B81E881F981E6FD04C09181892B8183AC
:1004F00004C091818073892B8183E881F981808197
:10050000807F9C81892B8083DF91CF910895AF926A
:10051000BF92CF92DF92EF92FF920F931F93CF93F0
:10052000DF9300D0CDB7DEB789839A836A017B0160
:1005300059018C0117D7B501C80161D78A81887F1D
:100540008A832DEB37E346E053E3C701B6010E94EF
:1005500049126B017C0120E03FEF4FE757E40E9416
:1005600049120E94B1126115710569F4C701B60103
:100570000E94B112E981FA8166A377A38081807F0E
:100580008160808384C06330710598F420E030E09E
:1005900040E05FE3C701B6010E946F130E94B112F1
:1005A000E981FA8166A377A38081807F826080835E
:1005B0006EC06530710598F420E030E040E85EE3FD
:1005C000C701B6010E946F130E94B112E981FA813E
:1005D00066A377A38081807F8360808358C0693061
:1005E000710598F420E030E040E05EE3C701B60119
:1005F0000E946F130E94B112E981FA8166A377A36A
:100600008081807F8460808342C06134710598F46A
:1006100020E030E040E85CE3C701B6010E946F13C0
:100620000E94B112E981FA8166A377A38081807F5D
:10063000856080832CC0613081E0780798F420E0E9
:1006400030E040E85BE3C701B6010E946F130E94EF
:10065000B112E981FA8166A377A38081807F8660E9
:10066000808315C06130744090F420E030E040E8B1
:100670005AE3C701B6010E946F130E94B112E981CB
:10068000FA8166A377A38081807F87608083E98178
:10069000FA8186818C7F86838681816086837894C7
:1006A0000F900F90DF91CF911F910F91FF90EF90DE
:1006B000DF90CF90BF90AF90089508958FEF809313
:1006C0007000809371008093720080937300809318
:1006D00074008093750080937600E0E5F0E08181FE
:1006E00084FD0BC08FB7F89490E195839081906161
:1006F00090838FBF818184FFFDCF64E080E490E030
:10070000F7D18FB7F894E0E5F0E0908194609083A2
:100710008FBF818182FFFDCF8FB7F894E0E5F0E0D5
:1007200096819E7F9683E8E6F0E0908191609083C9
:100730008FBF08959FB7F894E82FF0E0E059FF4F7E
:1007400060958081682360839FBF08959FB7F89468
:10075000E82FF0E0E059FF4F8081682B60839FBF56
:1007600008958115924059F48091082091E0980FE6
:1007700090930820811103C062E081E0DBCF0895EF
:100780008115924051F48091082081508093082077
:10079000811103C062E081E0D9CF08951F93CF9308
:1007A000DF93EC011FB7F894DCDF888181608883D8
:1007B0001FBF80913E208F3F09F4FFCF8FB7F89481
:1007C000EEE3F0E290819F5F90838FBFDF91CF9146
:1007D0001F9108951F920F920FB60F9211242F931D
:1007E0003F934F935F936F937F938F939F93AF93B9
:1007F000BF93EF93FF93E0E0F2E044A155A1E091B5
:100800004320F091442061E080E092E00995FF915F
:10081000EF91BF91AF919F918F917F916F915F9178
:100820004F913F912F910F900FBE0F901F901895F1
:100830001F920F920FB60F9211242F933F934F9355
:100840005F936F937F938F939F93AF93BF93EF9338
:10085000FF93E8E2F2E044815581E0914320F0917A
:10086000442062E080E092E00995FF91EF91BF9112
:10087000AF919F918F917F916F915F914F913F9138
:100880002F910F900FBE0F901F9018951F920F92EF
:100890000FB60F9211242F933F934F935F936F9353
:1008A0007F938F939F93AF93BF93EF93FF93E0E377
:1008B000F2E044815581E0914320F091442064E0CE
:1008C00080E092E00995FF91EF91BF91AF919F91E8
:1008D0008F917F916F915F914F913F912F910F90E9
:1008E0000FBE0F901F9018951F920F920FB60F9288
:1008F00011242F933F934F935F936F937F938F9325
:100900009F93AF93BF93EF93FF93E8E3F2E04481AB
:100910005581E0914320F091442068E080E092E02E
:100920000995FF91EF91BF91AF919F918F917F9129
:100930006F915F914F913F912F910F900FBE0F904C
:100940001F901895DF92EF92FF920F931F93CF9312
:10095000DF93EC018B01C11582E0D80759F561E204
:1009600070E082E0CBD0E82EF12C60E270E082E013
:10097000C5D0FE2CEE24E82ADFB6F894CE01F1DED5
:10098000288182E08883EC86FD86F8018581968146
:10099000888F998F82818A8384818C8383818B83E2
:1009A00081818983822F81709081892B8883CE01F8
:1009B000E7DEDFBEDF91CF911F910F91FF90EF90A7
:1009C000DF900895FF920F931F93CF93DF93EC0175
:1009D0008B01FFB6F894C5DE8881807CF8018083A6
:1009E000888D998D858396838A8182838C81848387
:1009F0008B81838389818183CE01C2DEFFBEDF913B
:100A0000CF911F910F91FF900895CF92DF92EF92B7
:100A1000FF920F931F93CF93DF937C01D62E8A0111
:100A2000862F837029F4962F9695969582E002C0C2
:100A3000962F80E090FF8F5FE701A09698E0899F56
:100A4000C00DD11D1124CFB6F894C7018ADEF8017C
:100A50008081888382818A8381818983D0FE02C0DC
:100A600083818E83C7018CDECFBEDF91CF911F9132
:100A70000F91FF90EF90DF90CF900895CF92DF928B
:100A8000EF92FF920F931F93CF93DF937C01D62EAB
:100A9000EA01862F837029F4962F9695969582E029
:100AA00002C0962F80E090FF8F5F8701005E1F4F8E
:100AB00098E0899F000D111D1124CFB6F894C7014D
:100AC00050DEF8018081888382818A8381818983D5
:100AD000D0FE02C086818B83C70152DECFBEDF917C
:100AE000CF911F910F91FF90EF90DF90CF900895DD
:100AF0001BBEFC0128ED24BF608308954091CA010C
:100B0000E62FF72F8093CA0184914093CA0108957C
:100B10001F920F920FB60F9211242F933F934F9372
:100B20005F936F937F938F939F93AF93BF93EF9355
:100B3000FF93E0913B20F0913C20309709F009951C
:100B4000FF91EF91BF91AF919F918F917F916F91A5
:100B50005F914F913F912F910F900FBE0F901F907B
:100B600018951F920F920FB60F9211242F933F9357
:100B70004F935F936F937F938F939F93AF93BF93A5
:100B8000EF93FF93E0913920F0913A20309709F0EC
:100B90000995FF91EF91BF91AF919F918F917F91B7
:100BA0006F915F914F913F912F910F900FBE0F90DA
:100BB0001F9018951F920F920FB60F9211242F932A
:100BC0003F934F935F936F937F938F939F93AF93D5
:100BD000BF93EF93FF93E0913720F0913820309747
:100BE00009F00995FF91EF91BF91AF919F918F917E
:100BF0007F916F915F914F913F912F910F900FBE19
:100C00000F901F9018951F920F920FB60F921124FC
:100C10002F933F934F935F936F937F938F939F9304
:100C2000AF93BF93EF93FF93E0913520F09136207F
:100C3000309709F00995FF91EF91BF91AF919F9186
:100C40008F917F916F915F914F913F912F910F9075
:100C50000FBE0F901F9018951F920F920FB60F9214
:100C600011242F933F934F935F936F937F938F93B1
:100C70009F93AF93BF93EF93FF93E0913320F09155
:100C80003420309709F00995FF91EF91BF91AF9112
:100C90009F918F917F916F915F914F913F912F9194
:100CA0000F900FBE0F901F9018951F920F920FB6C6
:100CB0000F9211242F933F934F935F936F937F93E2
:100CC0008F939F93AF93BF93EF93FF93E091312066
:100CD000F0913220309709F00995FF91EF91BF9183
:100CE000AF919F918F917F916F915F914F913F91C4
:100CF0002F910F900FBE0F901F9018951F920F927B
:100D00000FB60F9211242F933F934F935F936F93DE
:100D10007F938F939F93AF93BF93EF93FF93E09154
:100D20002F20F0913020309709F00995FF91EF9135
:100D3000BF91AF919F918F917F916F915F914F91F3
:100D40003F912F910F900FBE0F901F9018951F92FB
:100D50000F920FB60F9211242F933F934F935F93EF
:100D60006F937F938F939F93AF93BF93EF93FF9373
:100D7000E0912D20F0912E20309709F00995FF91F8
:100D8000EF91BF91AF919F918F917F916F915F9103
:100D90004F913F912F910F900FBE0F901F9018957C
:100DA0001F920F920FB60F9211242F933F934F93E0
:100DB0005F936F937F938F939F93AF93BF93EF93C3
:100DC000FF93E0912B20F0912C20309709F00995AA
:100DD000FF91EF91BF91AF919F918F917F916F9113
:100DE0005F914F913F912F910F900FBE0F901F90E9
:100DF00018951F920F920FB60F9211242F933F93C5
:100E00004F935F936F937F938F939F93AF93BF9312
:100E1000EF93FF93E0912920F0912A20309709F079
:100E20000995FF91EF91BF91AF919F918F917F9124
:100E30006F915F914F913F912F910F900FBE0F9047
:100E40001F9018951F920F920FB60F9211242F9397
:100E50003F934F935F936F937F938F939F93AF9342
:100E6000BF93EF93FF93E0912720F09128203097D4
:100E700009F00995FF91EF91BF91AF919F918F91EB
:100E80007F916F915F914F913F912F910F900FBE86
:100E90000F901F9018951F920F920FB60F9211246A
:100EA0002F933F934F935F936F937F938F939F9372
:100EB000AF93BF93EF93FF93E0912520F09126200D
:100EC000309709F00995FF91EF91BF91AF919F91F4
:100ED0008F917F916F915F914F913F912F910F90E3
:100EE0000FBE0F901F9018951F920F920FB60F9282
:100EF00011242F933F934F935F936F937F938F931F
:100F00009F93AF93BF93EF93FF93E0912320F091D2
:100F10002420309709F00995FF91EF91BF91AF918F
:100F20009F918F917F916F915F914F913F912F9101
:100F30000F900FBE0F901F9018951F920F920FB633
:100F40000F9211242F933F934F935F936F937F934F
:100F50008F939F93AF93BF93EF93FF93E0912120E3
:100F6000F0912220309709F00995FF91EF91BF9100
:100F7000AF919F918F917F916F915F914F913F9131
:100F80002F910F900FBE0F901F9018951F920F92E8
:100F90000FB60F9211242F933F934F935F936F934C
:100FA0007F938F939F93AF93BF93EF93FF93E091C2
:100FB0001F20F0912020309709F00995FF91EF91C3
:100FC000BF91AF919F918F917F916F915F914F9161
:100FD0003F912F910F900FBE0F901F9018951F9269
:100FE0000F920FB60F9211242F933F934F935F935D
:100FF0006F937F938F939F93AF93BF93EF93FF93E1
:10100000E0911D20F0911E20309709F00995FF9185
:10101000EF91BF91AF919F918F917F916F915F9170
:101020004F913F912F910F900FBE0F901F901895E9
:101030001F920F920FB60F9211242F933F934F934D
:101040005F936F937F938F939F93AF93BF93EF9330
:10105000FF93E0911B20F0911C20309709F0099537
:10106000FF91EF91BF91AF919F918F917F916F9180
:101070005F914F913F912F910F900FBE0F901F9056
:1010800018951F920F920FB60F9211242F933F9332
:101090004F935F936F937F938F939F93AF93BF9380
:1010A000EF93FF93E0911920F0911A20309709F007
:1010B0000995FF91EF91BF91AF919F918F917F9192
:1010C0006F915F914F913F912F910F900FBE0F90B5
:1010D0001F9018951F920F920FB60F9211242F9305
:1010E0003F934F935F936F937F938F939F93AF93B0
:1010F000BF93EF93FF93E0911720F0911820309762
:1011000009F00995FF91EF91BF91AF919F918F9158
:101110007F916F915F914F913F912F910F900FBEF3
:101120000F901F9018951F920F920FB60F921124D7
:101130002F933F934F935F936F937F938F939F93DF
:10114000AF93BF93EF93FF93E0911520F09116209A
:10115000309709F00995FF91EF91BF91AF919F9161
:101160008F917F916F915F914F913F912F910F9050
:101170000FBE0F901F9018951F920F920FB60F92EF
:1011800011242F933F934F935F936F937F938F938C
:101190009F93AF93BF93EF93FF93E0911320F09150
:1011A0001420309709F00995FF91EF91BF91AF910D
:1011B0009F918F917F916F915F914F913F912F916F
:1011C0000F900FBE0F901F9018951F920F920FB6A1
:1011D0000F9211242F933F934F935F936F937F93BD
:1011E0008F939F93AF93BF93EF93FF93E091112061
:1011F000F0911220309709F00995FF91EF91BF917E
:10120000AF919F918F917F916F915F914F913F919E
:101210002F910F900FBE0F901F9018951F920F9255
:101220000FB60F9211242F933F934F935F936F93B9
:101230007F938F939F93AF93BF93EF93FF93E0912F
:101240000F20F0911020309709F00995FF91EF9150
:10125000BF91AF919F918F917F916F915F914F91CE
:101260003F912F910F900FBE0F901F9018951F92D6
:101270000F920FB60F9211242F933F934F935F93CA
:101280006F937F938F939F93AF93BF93EF93FF934E
:10129000E0910D20F0910E20309709F00995FF9113
:1012A000EF91BF91AF919F918F917F916F915F91DE
:1012B0004F913F912F910F900FBE0F901F90189557
:1012C0001F920F920FB60F9211242F933F934F93BB
:1012D0005F936F937F938F939F93AF93BF93EF939E
:1012E000FF93E0910B20F0910C20309709F00995C5
:1012F000FF91EF91BF91AF919F918F917F916F91EE
:101300005F914F913F912F910F900FBE0F901F90C3
:1013100018951F920F920FB60F9211242F933F939F
:101320004F935F936F937F938F939F93AF93BF93ED
:10133000EF93FF93E0910920F0910A20309709F094
:101340000995FF91EF91BF91AF919F918F917F91FF
:101350006F915F914F913F912F910F900FBE0F9022
:101360001F901895CF93CFB7F894282F392F2115B8
:1013700088E0380739F461E083E0DCD964E083E099
:10138000D9D92DC0203488E0380739F462E083E0F1
:10139000D1D964E083E0CED922C0211589E0380795
:1013A00039F461E084E0C6D964E084E0C3D917C0B1
:1013B000203489E0380739F462E084E0BBD964E086
:1013C00084E0B8D90CC021153A4039F461E085E0D9
:1013D000B1D964E085E0AED902C0CFBF0EC0809124
:1013E0003E208F3F09F4FFCF8FB7F894EEE3F0E291
:1013F00090819F5F90838FBFCFBFCF91089581155C
:1014000028E0920729F460933B2070933C200895D4
:10141000803428E0920729F460932F2070933020C5
:101420000895811529E0920729F46093272070938D
:1014300028200895803429E0920729F460931B2026
:1014400070931C20089581159A4021F46093132015
:10145000709314200895FC01818185FFFDCF608386
:1014600080E090E00895FC0181818823ECF7808181
:1014700008954F925F926F927F928F929F92AF9258
:10148000BF92CF92DF92EF92FF920F931F93CF9371
:10149000DF93EC014A015B0128013901D901C80140
:1014A000689412F8B695A795979587951694D1F7F5
:1014B000B901A801032E36E17695679557954795B2
:1014C0003A95D1F7302D2C8122FD08C0B695A7950D
:1014D00097958795769567955795479588159905BA
:1014E000AA05BB0508F4A6C084169506A606B7068D
:1014F00008F4A2C08C8182FD04C0880C991CAA1C2F
:10150000BB1CC301B201A50194010E9405142F3F29
:1015100031054105510508F491C0C12CD12C76014B
:10152000CA9419EF05C02C153D054E055F0568F0FE
:10153000CC0CDD1CEE1CFF1C1D3F14F46894C0F89D
:101540001F5F173081F7212F50C0212F11230CF07E
:101550004CC0D501C401880F991FAA1FBB1F880F5B
:10156000991FAA1FBB1F880F991FAA1FBB1F481ACC
:10157000590A6A0A7B0A1E3FF4F46DEF7FEF611B84
:10158000710917FD739504C0440C551C661C771C2B
:101590006A95D2F7D501C401B695A7959795879519
:1015A000BC01CD01640D751D861D971DA50194011B
:1015B0000E94051436C023E0210FD501C40104C0E8
:1015C000880F991FAA1FBB1F2A95D2F79C01AD0156
:1015D000B695A79597958795BC01CD01640D751DAE
:1015E000861D971D0E9405141CC02D5FD501C401E6
:1015F00004C0880F991FAA1FBB1F2A95D2F79C0110
:10160000AD01B695A79597958795BC01CD01640D61
:10161000751D861D971D0E94051421503109410931
:101620005109832F8F701295107F182B1F832E83E3
:1016300081E018C080E016C080E014C0D501C4016C
:10164000880F991FAA1FBB1F880F991FAA1FBB1FB6
:10165000880F991FAA1FBB1F481A590A6A0A7B0ADA
:1016600019EF8BCFDF91CF911F910F91FF90EF90EA
:10167000DF90CF90BF90AF909F908F907F906F90B2
:101680005F904F9008950F931F93CF93DF93EC01DA
:101690008B01009709F4CCC0803C910521F460E1F6
:1016A00080E048D8C5C0C11584E0D80721F464E0C3
:1016B00080E040D8BDC0C038E1E0DE0721F462E040
:1016C00080E038D8B5C0C115F1E0DF0721F461E052
:1016D00080E030D8ADC0C03883E0D80721F461E0A5
:1016E00081E028D8A5C0C115E2E0DE0721F462E060
:1016F00081E020D89DC0C032F3E0DF0721F464E030
:1017000082E018D895C0C11588E0D80721F461E0BF
:1017100083E010D88DC0C115E9E0DE0721F461E057
:1017200084E008D885C0C115FAE0DF0721F461E044
:1017300085E000D87DC0C03488E0D80729F462E095
:1017400083E00E949A0374C0C034E9E0DE0729F404
:1017500062E084E00E949A036BC0C039F8E0DF07C2
:1017600029F464E083E00E949A0362C0C03989E0F2
:10177000D80729F464E084E00E949A0359C0C03974
:10178000EAE0DE0729F464E085E00E949A0350C095
:10179000C03CF8E0DF0729F468E083E00E949A0388
:1017A00047C0C03C89E0D80729F468E084E00E9483
:1017B0009A033EC0C03AE8E0DE0729F460E183E026
:1017C0000E949A0335C0C03AF9E0DF0729F460E1CE
:1017D00084E00E949A032CC0C03A8AE0D80729F41A
:1017E00060E185E00E949A0323C0C03BE8E0DE0789
:1017F00029F460E283E00E949A031AC0C03BF9E03A
:10180000DF0729F460E284E00E949A0311C0C03827
:1018100084E0D80729F460E483E00E949A0308C0BA
:10182000C03AE4E0DE0721F460E485E00E949A0318
:101830008D818F738D83F80194818581892B9681A9
:10184000992311F098E001C090E0892B8D83F80175
:10185000408151816281738100E018E428EE31E01B
:10186000CE0107DE9C8198609C839C8190619C8363
:10187000DF91CF911F910F910895CF93DF931F9226
:10188000CDB7DEB78FE390E0FC0180818983F894C7
:1018900089810F90DF91CF910895CF93DF931F92AD
:1018A000CDB7DEB789838FE390E02981FC012083E7
:1018B0000F90DF91CF910895CF93DF931F92CDB713
:1018C000DEB789838981882F90E08230910551F0BD
:1018D0008430910561F0019779F480E894E8AEE1F5
:1018E000B0E00DC080E098E4A8EEB1E008C080E070
:1018F00090E8A0E0B0E003C080E090E0DC01BC0133
:10190000CD010F90DF91CF910895CF93DF93CDB7A5
:10191000DEB72997CDBFDEBF8D836E837F83488777
:1019200059878D81882F90E08038910579F0803C2F
:101930009105A9F0892B09F01BC080E894E8AEE17D
:10194000B0E089839A83AB83BC8312C080E092E1CC
:10195000AAE7B0E089839A83AB83BC8309C088E09F
:10196000ABDFDC01CB0189839A83AB83BC830000AE
:101970008E819F81CC01A0E0B0E029813A814B812A
:101980005C81BC01CD0132D7DC01CB0189839A8314
:10199000AB83BC8389819A81AB81BC81BC01CD01C1
:1019A0002996CDBFDEBFDF91CF910895CF93DF930E
:1019B000CDB7DEB741E050E060E170E080E0A5DF48
:1019C000DC01CB01BC01CD01DF91CF910895CF9314
:1019D000DF931F92CDB7DEB71982E8DFDC01CB01C0
:1019E0002981222F30E004C0B695A7959795879559
:1019F0002A95D2F7BC01CD010F90DF91CF910895C8
:101A0000CF93DF93CDB7DEB7E2DFDC01CB01BC01C2
:101A1000CD01DF91CF910895CF93DF93CDB7DEB79E
:101A2000EFDFDC01CB01BC01CD01DF91CF91089547
:101A3000CF93DF9300D000D0CDB7DEB78A839B83EE
:101A40006C831BDF89838A819B81FC018081282F25
:101A50008C81882F90E0880F991F880F991F822B07
:101A6000282F8A819B81FC012083898116DF24969F
:101A7000CDBFDEBFDF91CF910895CF93DF9300D02C
:101A80001F92CDB7DEB789839A836B8389819A8150
:101A9000FC0196818B8189232396CDBFDEBFDF9128
:101AA000CF910895CF93DF9300D01F92CDB7DEB7CB
:101AB00089839A836B8389819A812B81FC01268398
:101AC0002396CDBFDEBFDF91CF910895CF93DF93F3
:101AD00000D01F92CDB7DEB789839A836B8389814B
:101AE0009A816B81CADF982F8B819817C1F7898102
:101AF0009A816B81D7DF2396CDBFDEBFDF91CF9177
:101B00000895CF93DF93CDB7DEB76197CDBFDEBF2A
:101B1000888799874A875B876C877D877DDFDC01B3
:101B2000CB018A839B83AC83BD838A819B81AC81FB
:101B3000BD812A853B854C855D85BC01CD0165D67F
:101B4000DA01C9018E839F838E819F81059710F4EE
:101B500019822FC08E819F81099718F481E08983B3
:101B600028C08E819F81419718F482E0898321C02B
:101B70008E819F81819718F483E089831AC08E81BA
:101B80009F818134910518F484E0898312C08E818D
:101B90009F818138910518F485E089830AC08E8180
:101BA0009F818130914018F486E0898302C087E0EC
:101BB0008983888599852981FC0124836196CDBF1D
:101BC000DEBFDF91CF910895CF93DF93CDB7DEB71E
:101BD0002597CDBFDEBF89839A836B834C832D838A
:101BE00089819A81FC018181282F297E89819A81AE
:101BF000FC01218389819A81FC0191812C818B8157
:101C0000822B292F282B89819A81FC0121838981AC
:101C10009A81FC018281282F2F7889819A81FC0189
:101C2000228389819A81FC0192818D81292F282B21
:101C300089819A81FC0122832596CDBFDEBFDF9189
:101C4000CF910895CF93DF931F92CDB7DEB78983ED
:101C50008981882F90E08830910551F18930910574
:101C60007CF481309105F1F0823091051CF4892BD0
:101C7000B9F028C082309105B9F00497B9F022C0BC
:101C800080329105C9F0813291051CF4409791F0A2
:101C900019C08034910591F08F3F910589F012C0F1
:101CA0008CE111C080E00FC084E00DC088E00BC063
:101CB0008CE009C080E107C084E105C088E103C071
:101CC00080E001C080E00F90DF91CF910895CF9325
:101CD000DF93CDB7DEB72597CDBFDEBF89839A836B
:101CE0006B834C832D838B81803178F089819A813D
:101CF000FC0110828B818051282F220F220F220F8E
:101D000089819A81FC01218387C08C818A3079F492
:101D100089819A8121E0FC0120838B81282F220F69
:101D2000220F220F89819A81FC01218375C08C8149
:101D30008430B8F489819A8122E0FC0120838B8170
:101D4000882F90E0880F991F880F991F880F991F7F
:101D5000982F8C81892B282F89819A81FC012183DE
:101D60005BC08C818830D8F48D816CDF282F236094
:101D700089819A81FC0120838B81882F90E0880FD4
:101D8000991F880F991F880F991F982F8C81845055
:101D9000892B282F89819A81FC0121833DC08D8167
:101DA0008130E1F489819A8122E0FC0120838B81DA
:101DB000882F90E0880F991F880F991F880F991F0F
:101DC000982F8C81883011F485E001C087E0892B41
:101DD000282F89819A81FC0121831EC08D8132DFE9
:101DE000282F236089819A81FC0120838B81882F91
:101DF00090E0880F991F880F991F880F991F982FBF
:101E00008C81893011F484E001C085E0892B282F72
:101E100089819A81FC0121832596CDBFDEBFDF91A8
:101E2000CF910895CF93DF93CDB7DEB780EA90E0EE
:101E300027E0FC012283DF91CF910895CF93DF93B8
:101E4000CDB7DEB72797CDBFDEBF0E945D030E94EE
:101E50005E03E8DFE8D1CDD182E38093482020EA19
:101E60003FE041E061E0CE0101960E94880180914F
:101E70004820682FCE0101960E94350280E092E052
:101E80000E94CE0326E531E14DEC5CEC6CEC7DE389
:101E900080E098E00E948702789480EA99E020E14F
:101EA000FC01238301D0FECFCF93DF93CDB7DEB704
:101EB0006697CDBFDEBF8091452090914620892B4B
:101EC00009F462C119821A820EC09E012F5E3F4F33
:101ED00089819A81820F931FFC01108289819A81E6
:101EE000019689839A8389819A81069770F38091FC
:101EF000452090914620092E000CAA0BBB0BBC017B
:101F0000CD015DD3DC01CB0120E030E040EA5AE3B3
:101F1000BC01CD01E4D3DC01CB018D879E87AF8767
:101F2000B88B20E030E040EC50E46D857E858F85F5
:101F30009889AFD2DC01CB012DEC3CEC4CEC5DE39D
:101F4000BC01CD0141D2DC01CB018D879E87AF87DB
:101F5000B88B20E030E04AE754E46D857E858F85BC
:101F60009889BDD3DC01CB0120E030E040E251E4B0
:101F7000BC01CD018ED2DC01CB018D879E87AF875E
:101F8000B88B1B821C8220E030E0A9016D857E8524
:101F90008F859889A0D31816BCF56D857E858F85B1
:101FA0009889DFD2DC01CB018B836D857E858F859F
:101FB0009889D7D2DC01CB018C838C81882F90E06B
:101FC000A0E0B0E0BC01CD01F8D2DC01CB019C0166
:101FD000AD016D857E858F859889F6D1DC01CB01B9
:101FE00020E030E04AE754E4BC01CD0178D3DC01C5
:101FF000CB01BC01CD01B5D2DC01CB018C838C813E
:10200000843630F41C8204C01D861E861F86188A02
:102010008091452090914620092E000CAA0BBB0B05
:10202000AE014F5E5F4F2AE030E0BC01CD0128D405
:102030001D821E821EC09E012F5E3F4F8D819E819C
:10204000820F931FFC018081882309F416C09E0132
:102050002F5E3F4F8D819E81820F931FFC018081F7
:10206000682F80EA99E0F7D98D819E8101968D8352
:102070009E838D819E810697F0F26FE580EA99E05C
:10208000EAD98B81882F90E09E012F5E3F4F4AE076
:1020900050E0B90120D41F8218861EC09E012F5E19
:1020A0003F4F8F819885820F931FFC018081882389
:1020B00009F416C09E012F5E3F4F8F819885820FD5
:1020C000931FFC018081682F80EA99E0C4D98F8139
:1020D000988501968F8398878F8198850697F0F26F
:1020E0006EE280EA99E0B7D919861A860EC09E0181
:1020F0002F5E3F4F89859A85820F931FFC011082C6
:1021000089859A85019689879A8789859A85069710
:1021100070F38C81882F90E09E012F5E3F4F4AE044
:1021200050E0B901D8D31B861C861EC09E012F5ECD
:102130003F4F8B859C85820F931FFC0180818823F4
:1021400009F416C09E012F5E3F4F8B859C85820F40
:10215000931FFC018081682F80EA99E07CD98B85F0
:102160009C8501968B879C878B859C850697F0F2D2
:102170006DE080EA99E06FD96AE080EA99E06BD976
:1021800010924520109246206696CDBFDEBFDF91AB
:10219000CF9108951F920F9200903F000F9211244B
:1021A0002F933F934F935F936F937F938F939F935F
:1021B000AF93BF93EF93FF93CF93DF93CDB7DEB78A
:1021C00080EA99E050D980934720DF91CF91FF9129
:1021D000EF91BF91AF919F918F917F916F915F919F
:1021E0004F913F912F910F9000923F000F901F90C1
:1021F0001895CF93DF93CDB7DEB760E184E00E94FE
:102200009A0360E070E280EA99E03DDA80E696E0C9
:1022100024E0FC01228380E696E028E0FC01218393
:10222000DF91CF910895CF93DF93CDB7DEB72B9792
:10223000CDBFDEBF80E096E022E0FC012283CE012C
:102240000196BC0180E092E00E94E204CE01089673
:10225000AC0162E080E092E00E943E0520E240E0B6
:1022600060E1CE010196B0DC40E25EE460E070E047
:10227000CE01019646DCCE01089621E04AE061E0FD
:1022800026DDCE010196BC0180E092E00E94A2040E
:10229000CE010896AC0162E080E092E00E94050564
:1022A0002B96CDBFDEBFDF91CF910895CF92DF9205
:1022B000EF92FF92CF93DF93CDB7DEB72997CDBFD3
:1022C000DEBF19821A828AE08D831B821C8245C080
:1022D00062E080E092E0ACDB62E080E092E0F6DB7E
:1022E00080E092E08E839F8382E0888719868885CC
:1022F000882F90E083709927892B39F489858E5F28
:10230000898788858695869588878885882F90E037
:1023100081709927892B19F489858F5F89878E8130
:102320009F819C01205E3F4F8985882F90E0880F18
:10233000991F880F991F880F991F820F931FFC0107
:102340008481958129813A81820F931F89839A83A1
:102350008B819C8101968B839C838D81282F30E01B
:102360008B819C81821793070CF4B2CF89819A816B
:10237000CC01A0E0B0E0BC01CD011FD16B017C011C
:102380008D81882F90E0A0E0B0E0BC01CD0115D197
:10239000DC01CB019C01AD01C701B6017AD0DC01A3
:1023A000CB01BC01CD01DDD0DC01CB018093452008
:1023B000909346202996CDBFDEBFDF91CF91FF904D
:1023C000EF90DF90CF9008955058BB27AA270ED0EA
:1023D00048C139D130F03ED120F031F49F3F11F4A3
:1023E0001EF42EC10EF4E095E7FB24C1E92F4AD17B
:1023F00080F3BA17620773078407950718F071F422
:102400009EF562C10EF4E0950B2EBA2FA02D0B01A4
:10241000B90190010C01CA01A0011124FF27591B29
:1024200099F0593F50F4503E68F11A16F040A22F2F
:10243000232F342F4427585FF3CF469537952795A0
:10244000A795F0405395C9F77EF41F16BA0B620B9F
:10245000730B840BBAF09150A1F0FF0FBB1F661FE6
:10246000771F881FC2F70EC0BA0F621F731F841F29
:1024700048F4879577956795B795F7959E3F08F04F
:10248000B3CF9395880F08F09927EE0F979587950E
:1024900008950CD0E6C0DED040F0D5D030F021F465
:1024A0005F3F19F0C7C0511110C1CAC0EBD098F3FB
:1024B0009923C9F35523B1F3951B550BBB27AA27C5
:1024C00062177307840738F09F5F5F4F220F331F37
:1024D000441FAA1FA9F333D00E2E3AF0E0E830D003
:1024E00091505040E695001CCAF729D0FE2F27D006
:1024F000660F771F881FBB1F261737074807AB07D4
:10250000B0E809F0BB0B802DBF01FF2793585F4F48
:102510002AF09E3F510568F08DC0D7C05F3FECF3B5
:10252000983EDCF3869577956795B795F7959F5F0D
:10253000C9F7880F911D9695879597F90895E1E061
:10254000660F771F881FBB1F621773078407BA07C0
:1025500020F0621B730B840BBA0BEE1F88F7E0951B
:10256000089598D088F09F5790F0B92F9927B751C8
:10257000A0F0D1F0660F771F881F991F1AF0BA9547
:10258000C9F712C0B13081F09FD0B1E008959CC06E
:10259000672F782F8827B85F39F0B93FCCF386953D
:1025A00077956795B395D9F73EF49095809570959A
:1025B00061957F4F8F4F9F4F0895E89409C097FB17
:1025C0003EF490958095709561957F4F8F4F9F4F0A
:1025D0009923A9F0F92F96E9BB279395F69587954E
:1025E00077956795B795F111F8CFFAF4BB0F11F411
:1025F00060FF1BC06F5F7F4F8F4F9F4F16C08823B8
:1026000011F096E911C0772321F09EE8872F762FED
:1026100005C0662371F096E8862F70E060E02AF02E
:102620009A95660F771F881FDAF7880F969587951A
:1026300097F9089597F99F6780E870E060E0089542
:102640009FEF80EC089500240A94161617061806CA
:102650000906089500240A941216130614060506A6
:102660000895092E0394000C11F4882352F0BB0F37
:1026700040F4BF2B11F460FF04C06F5F7F4F8F4F9A
:102680009F4F089557FD9058440F551F59F05F3FD5
:1026900071F04795880F97FB991F61F09F3F79F084
:1026A00087950895121613061406551FF2CF469506
:1026B000F1DF08C0161617061806991FF1CF869588
:1026C0007105610508940895E894BB27662777276C
:1026D000CB0197F9089566D008F48FEF08950BD0D9
:1026E000C0CFB1DF28F0B6DF18F0952309F0A2CFF4
:1026F000A7CF1124EACFC6DFA0F3959FD1F3950FA2
:1027000050E0551F629FF001729FBB27F00DB11D75
:10271000639FAA27F00DB11DAA1F649F6627B00D05
:10272000A11D661F829F2227B00DA11D621F739FEE
:10273000B00DA11D621F839FA00D611D221F749FFC
:102740003327A00D611D231F849F600D211D822F43
:10275000762F6A2F11249F5750408AF0E1F088238A
:102760004AF0EE0FFF1FBB1F661F771F881F915097
:102770005040A9F79E3F510570F05CCFA6CF5F3F58
:10278000ECF3983EDCF3869577956795B795F795CA
:10279000E7959F5FC1F7FE2B880F911D9695879552
:1027A00097F90895990F0008550FAA0BE0E8FEEF7E
:1027B00016161706E807F907C0F012161306E40705
:1027C000F50798F0621B730B840B950B39F40A26FE
:1027D00061F0232B242B252B21F408950A2609F4DC
:1027E000A140A6958FEF811D811D0895DB018F9378
:1027F0009F933CD0BF91AF91A29F800D911DA39F4D
:10280000900DB29F900D11240895A1E21A2EAA1BDB
:10281000BB1BFD010DC0AA1FBB1FEE1FFF1FA21790
:10282000B307E407F50720F0A21BB30BE40BF50B8D
:10283000661F771F881F991F1A9469F76095709516
:10284000809590959B01AC01BD01CF010895A29F99
:10285000B001B39FC001A39F700D811D1124911D74
:10286000B29F700D811D1124911D0895F0DFA59F69
:10287000900DB49F900DA49F800D911D112408957B
:102880002532310518F4223008F004C0FA01108214
:10289000CA010895BB27FA01A62F621771058105A9
:1028A0009105330B30FB66F0AA27660F771F881F50
:1028B000991FAA1FA21710F0A21B63953850A9F701
:1028C000A05DAA3308F0A95DA19336F7B111B193C9
:1028D0001082CA0123C04532510518F4423008F075
:1028E00004C0FB011082CB010895BB27FB015527D3
:1028F000AA27880F991FAA1FA41710F0A41B83955D
:102900005051B9F7A05DAA3308F0A95DA1930097D3
:1029100079F7B111B1931192CB0100C0DC01FC0138
:10292000672F71917723E1F7329704C07C916D9303
:1029300070836291AE17BF07C8F30895F894FFCF74
:082940008025000003000000E7
:00000001FF
